{
  "_format": "hh-sol-artifact-1",
  "contractName": "Vault",
  "sourceName": "contracts/Greeter.sol",
  "abi": [
    {
      "inputs": [
        {
          "internalType": "address payable",
          "name": "_seller",
          "type": "address"
        },
        {
          "internalType": "address payable",
          "name": "_buyer",
          "type": "address"
        }
      ],
      "stateMutability": "nonpayable",
      "type": "constructor"
    },
    {
      "anonymous": false,
      "inputs": [
        {
          "indexed": true,
          "internalType": "uint8",
          "name": "conflictId",
          "type": "uint8"
        },
        {
          "indexed": true,
          "internalType": "uint64",
          "name": "conflictTime",
          "type": "uint64"
        },
        {
          "indexed": true,
          "internalType": "enum Vault.ConflictStatus",
          "name": "status",
          "type": "uint8"
        }
      ],
      "name": "ConflictStarted",
      "type": "event"
    },
    {
      "anonymous": false,
      "inputs": [
        {
          "indexed": true,
          "internalType": "uint8",
          "name": "orderId",
          "type": "uint8"
        },
        {
          "indexed": true,
          "internalType": "uint64",
          "name": "orderTime",
          "type": "uint64"
        },
        {
          "indexed": true,
          "internalType": "enum Vault.OrderStatus",
          "name": "status",
          "type": "uint8"
        }
      ],
      "name": "OrderCancelled",
      "type": "event"
    },
    {
      "anonymous": false,
      "inputs": [
        {
          "indexed": true,
          "internalType": "uint8",
          "name": "orderId",
          "type": "uint8"
        },
        {
          "indexed": true,
          "internalType": "uint64",
          "name": "orderTime",
          "type": "uint64"
        },
        {
          "indexed": true,
          "internalType": "enum Vault.OrderStatus",
          "name": "status",
          "type": "uint8"
        }
      ],
      "name": "OrderCreated",
      "type": "event"
    },
    {
      "anonymous": false,
      "inputs": [
        {
          "indexed": true,
          "internalType": "uint8",
          "name": "orderId",
          "type": "uint8"
        },
        {
          "indexed": true,
          "internalType": "uint64",
          "name": "orderTime",
          "type": "uint64"
        },
        {
          "indexed": true,
          "internalType": "enum Vault.OrderStatus",
          "name": "status",
          "type": "uint8"
        }
      ],
      "name": "OrderDelivered",
      "type": "event"
    },
    {
      "anonymous": false,
      "inputs": [
        {
          "indexed": true,
          "internalType": "bytes32",
          "name": "role",
          "type": "bytes32"
        },
        {
          "indexed": true,
          "internalType": "bytes32",
          "name": "previousAdminRole",
          "type": "bytes32"
        },
        {
          "indexed": true,
          "internalType": "bytes32",
          "name": "newAdminRole",
          "type": "bytes32"
        }
      ],
      "name": "RoleAdminChanged",
      "type": "event"
    },
    {
      "anonymous": false,
      "inputs": [
        {
          "indexed": true,
          "internalType": "bytes32",
          "name": "role",
          "type": "bytes32"
        },
        {
          "indexed": true,
          "internalType": "address",
          "name": "account",
          "type": "address"
        },
        {
          "indexed": true,
          "internalType": "address",
          "name": "sender",
          "type": "address"
        }
      ],
      "name": "RoleGranted",
      "type": "event"
    },
    {
      "anonymous": false,
      "inputs": [
        {
          "indexed": true,
          "internalType": "bytes32",
          "name": "role",
          "type": "bytes32"
        },
        {
          "indexed": true,
          "internalType": "address",
          "name": "account",
          "type": "address"
        },
        {
          "indexed": true,
          "internalType": "address",
          "name": "sender",
          "type": "address"
        }
      ],
      "name": "RoleRevoked",
      "type": "event"
    },
    {
      "inputs": [],
      "name": "BUYER_ROLE",
      "outputs": [
        {
          "internalType": "bytes32",
          "name": "",
          "type": "bytes32"
        }
      ],
      "stateMutability": "view",
      "type": "function"
    },
    {
      "inputs": [],
      "name": "DEFAULT_ADMIN_ROLE",
      "outputs": [
        {
          "internalType": "bytes32",
          "name": "",
          "type": "bytes32"
        }
      ],
      "stateMutability": "view",
      "type": "function"
    },
    {
      "inputs": [],
      "name": "SELLER_ROLE",
      "outputs": [
        {
          "internalType": "bytes32",
          "name": "",
          "type": "bytes32"
        }
      ],
      "stateMutability": "view",
      "type": "function"
    },
    {
      "inputs": [
        {
          "internalType": "uint8",
          "name": "orderId",
          "type": "uint8"
        }
      ],
      "name": "acceptOrder",
      "outputs": [],
      "stateMutability": "payable",
      "type": "function"
    },
    {
      "inputs": [
        {
          "internalType": "uint8",
          "name": "orderId",
          "type": "uint8"
        }
      ],
      "name": "confirmPayout",
      "outputs": [],
      "stateMutability": "nonpayable",
      "type": "function"
    },
    {
      "inputs": [],
      "name": "conflictTimePeriod",
      "outputs": [
        {
          "internalType": "uint32",
          "name": "",
          "type": "uint32"
        }
      ],
      "stateMutability": "view",
      "type": "function"
    },
    {
      "inputs": [
        {
          "internalType": "uint8",
          "name": "",
          "type": "uint8"
        }
      ],
      "name": "conflicts",
      "outputs": [
        {
          "internalType": "uint8",
          "name": "conflictId",
          "type": "uint8"
        },
        {
          "internalType": "enum Vault.ConflictStatus",
          "name": "status",
          "type": "uint8"
        },
        {
          "internalType": "uint64",
          "name": "conflictStartTime",
          "type": "uint64"
        },
        {
          "internalType": "string",
          "name": "sellerProof",
          "type": "string"
        },
        {
          "internalType": "string",
          "name": "buyerProof",
          "type": "string"
        },
        {
          "internalType": "uint64",
          "name": "sellerVotes",
          "type": "uint64"
        },
        {
          "internalType": "uint64",
          "name": "buyerVotes",
          "type": "uint64"
        }
      ],
      "stateMutability": "view",
      "type": "function"
    },
    {
      "inputs": [
        {
          "internalType": "uint8",
          "name": "orderId",
          "type": "uint8"
        }
      ],
      "name": "deliverAndRequestPayout",
      "outputs": [],
      "stateMutability": "nonpayable",
      "type": "function"
    },
    {
      "inputs": [
        {
          "internalType": "bytes32",
          "name": "role",
          "type": "bytes32"
        }
      ],
      "name": "getRoleAdmin",
      "outputs": [
        {
          "internalType": "bytes32",
          "name": "",
          "type": "bytes32"
        }
      ],
      "stateMutability": "view",
      "type": "function"
    },
    {
      "inputs": [
        {
          "internalType": "bytes32",
          "name": "role",
          "type": "bytes32"
        },
        {
          "internalType": "address",
          "name": "account",
          "type": "address"
        }
      ],
      "name": "grantRole",
      "outputs": [],
      "stateMutability": "nonpayable",
      "type": "function"
    },
    {
      "inputs": [
        {
          "internalType": "bytes32",
          "name": "role",
          "type": "bytes32"
        },
        {
          "internalType": "address",
          "name": "account",
          "type": "address"
        }
      ],
      "name": "hasRole",
      "outputs": [
        {
          "internalType": "bool",
          "name": "",
          "type": "bool"
        }
      ],
      "stateMutability": "view",
      "type": "function"
    },
    {
      "inputs": [
        {
          "internalType": "uint8",
          "name": "orderId",
          "type": "uint8"
        },
        {
          "internalType": "string",
          "name": "conflictURI",
          "type": "string"
        }
      ],
      "name": "lodgeConflict",
      "outputs": [],
      "stateMutability": "nonpayable",
      "type": "function"
    },
    {
      "inputs": [],
      "name": "nextOrderId",
      "outputs": [
        {
          "internalType": "uint8",
          "name": "",
          "type": "uint8"
        }
      ],
      "stateMutability": "view",
      "type": "function"
    },
    {
      "inputs": [
        {
          "internalType": "uint8",
          "name": "",
          "type": "uint8"
        }
      ],
      "name": "orders",
      "outputs": [
        {
          "internalType": "uint8",
          "name": "id",
          "type": "uint8"
        },
        {
          "internalType": "uint64",
          "name": "timeOfOrder",
          "type": "uint64"
        },
        {
          "internalType": "uint64",
          "name": "deliveryTime",
          "type": "uint64"
        },
        {
          "internalType": "enum Vault.OrderStatus",
          "name": "status",
          "type": "uint8"
        },
        {
          "internalType": "uint256",
          "name": "promisedAmount",
          "type": "uint256"
        },
        {
          "internalType": "uint256",
          "name": "paidAmount",
          "type": "uint256"
        },
        {
          "internalType": "string",
          "name": "termsOfCompletion",
          "type": "string"
        },
        {
          "internalType": "uint256",
          "name": "conflictPremium",
          "type": "uint256"
        },
        {
          "internalType": "bytes32",
          "name": "juryRoot",
          "type": "bytes32"
        },
        {
          "internalType": "uint64",
          "name": "juryNum",
          "type": "uint64"
        }
      ],
      "stateMutability": "view",
      "type": "function"
    },
    {
      "inputs": [
        {
          "internalType": "uint8",
          "name": "conflictId",
          "type": "uint8"
        },
        {
          "internalType": "string",
          "name": "conflictURI",
          "type": "string"
        }
      ],
      "name": "provideConflictProofBuyer",
      "outputs": [],
      "stateMutability": "nonpayable",
      "type": "function"
    },
    {
      "inputs": [
        {
          "internalType": "uint8",
          "name": "conflictId",
          "type": "uint8"
        },
        {
          "internalType": "string",
          "name": "conflictURI",
          "type": "string"
        }
      ],
      "name": "provideConflictProofSeller",
      "outputs": [],
      "stateMutability": "nonpayable",
      "type": "function"
    },
    {
      "inputs": [
        {
          "internalType": "bytes32",
          "name": "role",
          "type": "bytes32"
        },
        {
          "internalType": "address",
          "name": "account",
          "type": "address"
        }
      ],
      "name": "renounceRole",
      "outputs": [],
      "stateMutability": "nonpayable",
      "type": "function"
    },
    {
      "inputs": [],
      "name": "resolutionTimePeriod",
      "outputs": [
        {
          "internalType": "uint32",
          "name": "",
          "type": "uint32"
        }
      ],
      "stateMutability": "view",
      "type": "function"
    },
    {
      "inputs": [
        {
          "internalType": "bytes32",
          "name": "role",
          "type": "bytes32"
        },
        {
          "internalType": "address",
          "name": "account",
          "type": "address"
        }
      ],
      "name": "revokeRole",
      "outputs": [],
      "stateMutability": "nonpayable",
      "type": "function"
    },
    {
      "inputs": [
        {
          "internalType": "uint8",
          "name": "orderId",
          "type": "uint8"
        }
      ],
      "name": "settleConflict",
      "outputs": [],
      "stateMutability": "nonpayable",
      "type": "function"
    },
    {
      "inputs": [
        {
          "internalType": "string",
          "name": "termsURI",
          "type": "string"
        },
        {
          "internalType": "uint256",
          "name": "_conflictPremium",
          "type": "uint256"
        },
        {
          "internalType": "bytes32",
          "name": "_juryRoot",
          "type": "bytes32"
        },
        {
          "internalType": "uint64",
          "name": "_juryNum",
          "type": "uint64"
        }
      ],
      "name": "startNewOrder",
      "outputs": [],
      "stateMutability": "payable",
      "type": "function"
    },
    {
      "inputs": [
        {
          "internalType": "bytes4",
          "name": "interfaceId",
          "type": "bytes4"
        }
      ],
      "name": "supportsInterface",
      "outputs": [
        {
          "internalType": "bool",
          "name": "",
          "type": "bool"
        }
      ],
      "stateMutability": "view",
      "type": "function"
    },
    {
      "inputs": [
        {
          "internalType": "uint8",
          "name": "conflictId",
          "type": "uint8"
        },
        {
          "internalType": "bool",
          "name": "vote",
          "type": "bool"
        },
        {
          "internalType": "bytes32[]",
          "name": "addressProof",
          "type": "bytes32[]"
        }
      ],
      "name": "voteOnConflict",
      "outputs": [],
      "stateMutability": "nonpayable",
      "type": "function"
    }
  ],
  "bytecode": "0x60c06040526000600260006101000a81548160ff021916908360ff1602179055503480156200002d57600080fd5b5060405162003f9a38038062003f9a8339818101604052810190620000539190620002c6565b60016000819055508173ffffffffffffffffffffffffffffffffffffffff1660808173ffffffffffffffffffffffffffffffffffffffff1660601b815250508073ffffffffffffffffffffffffffffffffffffffff1660a08173ffffffffffffffffffffffffffffffffffffffff1660601b81525050620000fb7fe27592a68a79c541972a95a186227e8435146610cb2d3eb8f8589c9a507d61b2836200013560201b60201c565b6200012d7feeccd0cdb44235955432f589255f62b95683f64165b40b022d338b8009cf79b6826200013560201b60201c565b505062000355565b6200014782826200014b60201b60201c565b5050565b6200015d82826200023c60201b60201c565b6200023857600180600084815260200190815260200160002060000160008373ffffffffffffffffffffffffffffffffffffffff1673ffffffffffffffffffffffffffffffffffffffff16815260200190815260200160002060006101000a81548160ff021916908315150217905550620001dd620002a760201b60201c565b73ffffffffffffffffffffffffffffffffffffffff168173ffffffffffffffffffffffffffffffffffffffff16837f2f8788117e7eff1d82e926ec794901d17c78024a50270940304540a733656f0d60405160405180910390a45b5050565b60006001600084815260200190815260200160002060000160008373ffffffffffffffffffffffffffffffffffffffff1673ffffffffffffffffffffffffffffffffffffffff16815260200190815260200160002060009054906101000a900460ff16905092915050565b600033905090565b600081519050620002c0816200033b565b92915050565b60008060408385031215620002da57600080fd5b6000620002ea85828601620002af565b9250506020620002fd85828601620002af565b9150509250929050565b600062000314826200031b565b9050919050565b600073ffffffffffffffffffffffffffffffffffffffff82169050919050565b620003468162000307565b81146200035257600080fd5b50565b60805160601c60a05160601c613c1262000388600039600081816111e9015261147f015260006110690152613c126000f3fe6080604052600436106101405760003560e01c806376b45224116100b6578063d547741f1161006f578063d547741f1461045f578063dbe4613d14610488578063e0affed5146104b3578063e401f72e146104dc578063e813a41914610505578063ee2f124e1461053057610140565b806376b45224146103415780637a01a1da1461036a57806391d1485414610395578063a217fddf146103d2578063d4b05b9d146103fd578063d4be2dc91461044357610140565b806336568abe1161010857806336568abe1461022f57806342015fcc146102585780634edaefe2146102815780635be95d06146102ac578063609a0982146102d557806361c5e1941461031857610140565b806301ffc9a714610145578063248a9ca3146101825780632a58b330146101bf5780632f2ff15d146101ea57806330e616a214610213575b600080fd5b34801561015157600080fd5b5061016c60048036038101906101679190612a70565b610559565b6040516101799190612f5d565b60405180910390f35b34801561018e57600080fd5b506101a960048036038101906101a49190612a0b565b6105d3565b6040516101b69190612f78565b60405180910390f35b3480156101cb57600080fd5b506101d46105f3565b6040516101e19190613170565b60405180910390f35b3480156101f657600080fd5b50610211600480360381019061020c9190612a34565b610606565b005b61022d60048036038101906102289190612a99565b610627565b005b34801561023b57600080fd5b5061025660048036038101906102519190612a34565b61085b565b005b34801561026457600080fd5b5061027f600480360381019061027a9190612b19565b6108de565b005b34801561028d57600080fd5b50610296610b0b565b6040516102a39190613155565b60405180910390f35b3480156102b857600080fd5b506102d360048036038101906102ce9190612bae565b610b12565b005b3480156102e157600080fd5b506102fc60048036038101906102f79190612b19565b610b72565b60405161030f979695949392919061318b565b60405180910390f35b34801561032457600080fd5b5061033f600480360381019061033a9190612b19565b610d1a565b005b34801561034d57600080fd5b5061036860048036038101906103639190612b19565b611277565b005b34801561037657600080fd5b5061037f611504565b60405161038c9190612f78565b60405180910390f35b3480156103a157600080fd5b506103bc60048036038101906103b79190612a34565b611528565b6040516103c99190612f5d565b60405180910390f35b3480156103de57600080fd5b506103e7611593565b6040516103f49190612f78565b60405180910390f35b34801561040957600080fd5b50610424600480360381019061041f9190612b19565b61159a565b60405161043a9a99989796959493929190613208565b60405180910390f35b61045d60048036038101906104589190612b19565b6116cc565b005b34801561046b57600080fd5b5061048660048036038101906104819190612a34565b6118a0565b005b34801561049457600080fd5b5061049d6118c1565b6040516104aa9190612f78565b60405180910390f35b3480156104bf57600080fd5b506104da60048036038101906104d59190612b42565b6118e5565b005b3480156104e857600080fd5b5061050360048036038101906104fe9190612bae565b611d9a565b005b34801561051157600080fd5b5061051a611dfa565b6040516105279190613155565b60405180910390f35b34801561053c57600080fd5b5061055760048036038101906105529190612bae565b611e00565b005b60007f7965db0b000000000000000000000000000000000000000000000000000000007bffffffffffffffffffffffffffffffffffffffffffffffffffffffff1916827bffffffffffffffffffffffffffffffffffffffffffffffffffffffff191614806105cc57506105cb826120ab565b5b9050919050565b600060016000838152602001908152602001600020600101549050919050565b600260009054906101000a900460ff1681565b61060f826105d3565b61061881612115565b6106228383612129565b505050565b7feeccd0cdb44235955432f589255f62b95683f64165b40b022d338b8009cf79b661065181612115565b600060036000600260009054906101000a900460ff1660ff1660ff1681526020019081526020016000209050600260009054906101000a900460ff168160000160006101000a81548160ff021916908360ff160217905550428160000160016101000a81548167ffffffffffffffff021916908367ffffffffffffffff16021790555060008160000160116101000a81548160ff02191690836005811115610722577f4e487b7100000000000000000000000000000000000000000000000000000000600052602160045260246000fd5b021790555084346107339190613447565b8160010181905550600081600201819055508686826003019190610758929190612753565b50848160040181905550838160050181905550828160060160006101000a81548167ffffffffffffffff021916908367ffffffffffffffff160217905550600060058111156107d0577f4e487b7100000000000000000000000000000000000000000000000000000000600052602160045260246000fd5b4267ffffffffffffffff16600260009054906101000a900460ff1660ff167f8a0b0cb021bd5456f0b81b2a93da1cdeaa5d0e832179e1ef23462c4ae03ea8fc60405160405180910390a46002600081819054906101000a900460ff1680929190610839906136bd565b91906101000a81548160ff021916908360ff1602179055505050505050505050565b610863612209565b73ffffffffffffffffffffffffffffffffffffffff168173ffffffffffffffffffffffffffffffffffffffff16146108d0576040517f08c379a00000000000000000000000000000000000000000000000000000000081526004016108c790613135565b60405180910390fd5b6108da8282612211565b5050565b7fe27592a68a79c541972a95a186227e8435146610cb2d3eb8f8589c9a507d61b261090881612115565b60016005811115610942577f4e487b7100000000000000000000000000000000000000000000000000000000600052602160045260246000fd5b600360008460ff1660ff16815260200190815260200160002060000160119054906101000a900460ff1660058111156109a4577f4e487b7100000000000000000000000000000000000000000000000000000000600052602160045260246000fd5b146109e4576040517f08c379a00000000000000000000000000000000000000000000000000000000081526004016109db906130f5565b60405180910390fd5b6002600360008460ff1660ff16815260200190815260200160002060000160116101000a81548160ff02191690836005811115610a4a577f4e487b7100000000000000000000000000000000000000000000000000000000600052602160045260246000fd5b021790555042600360008460ff1660ff16815260200190815260200160002060000160096101000a81548167ffffffffffffffff021916908367ffffffffffffffff16021790555060026005811115610acc577f4e487b7100000000000000000000000000000000000000000000000000000000600052602160045260246000fd5b4267ffffffffffffffff168360ff167f49c9f703275fc8b9938347d2aefc47cf133e9ee95bad069f1e727adceda78b4460405160405180910390a45050565b6203f48081565b7feeccd0cdb44235955432f589255f62b95683f64165b40b022d338b8009cf79b6610b3c81612115565b81600460008560ff1660ff1681526020019081526020016000206002019080519060200190610b6c9291906127d9565b50505050565b60046020528060005260406000206000915090508060000160009054906101000a900460ff16908060000160019054906101000a900460ff16908060000160029054906101000a900467ffffffffffffffff1690806001018054610bd5906135e0565b80601f0160208091040260200160405190810160405280929190818152602001828054610c01906135e0565b8015610c4e5780601f10610c2357610100808354040283529160200191610c4e565b820191906000526020600020905b815481529060010190602001808311610c3157829003601f168201915b505050505090806002018054610c63906135e0565b80601f0160208091040260200160405190810160405280929190818152602001828054610c8f906135e0565b8015610cdc5780601f10610cb157610100808354040283529160200191610cdc565b820191906000526020600020905b815481529060010190602001808311610cbf57829003601f168201915b5050505050908060030160009054906101000a900467ffffffffffffffff16908060030160089054906101000a900467ffffffffffffffff16905087565b60026000541415610d60576040517f08c379a0000000000000000000000000000000000000000000000000000000008152600401610d5790613115565b60405180910390fd5b600260008190555060046005811115610da2577f4e487b7100000000000000000000000000000000000000000000000000000000600052602160045260246000fd5b600360008360ff1660ff16815260200190815260200160002060000160119054906101000a900460ff166005811115610e04577f4e487b7100000000000000000000000000000000000000000000000000000000600052602160045260246000fd5b14610e44576040517f08c379a0000000000000000000000000000000000000000000000000000000008152600401610e3b906130d5565b60405180910390fd5b6203f48063ffffffff16600460008360ff1660ff16815260200190815260200160002060000160029054906101000a900467ffffffffffffffff16610e89919061337e565b67ffffffffffffffff164211610ed4576040517f08c379a0000000000000000000000000000000000000000000000000000000008152600401610ecb90613075565b60405180910390fd5b6000600460008360ff1660ff16815260200190815260200160002060030160089054906101000a900467ffffffffffffffff1667ffffffffffffffff16600460008460ff1660ff16815260200190815260200160002060030160009054906101000a900467ffffffffffffffff1667ffffffffffffffff1611905080156110ef57600360008360ff1660ff16815260200190815260200160002060010154600360008460ff1660ff1681526020019081526020016000206002018190555060038060008460ff1660ff16815260200190815260200160002060000160116101000a81548160ff02191690836005811115610ff7577f4e487b7100000000000000000000000000000000000000000000000000000000600052602160045260246000fd5b02179055506002600460008460ff1660ff16815260200190815260200160002060000160016101000a81548160ff02191690836004811115611062577f4e487b7100000000000000000000000000000000000000000000000000000000600052602160045260246000fd5b02179055507f000000000000000000000000000000000000000000000000000000000000000073ffffffffffffffffffffffffffffffffffffffff166108fc600360008560ff1660ff168152602001908152602001600020600101549081150290604051600060405180830381858888f193505050501580156110e9573d6000803e3d6000fd5b5061126b565b6000600360008460ff1660ff168152602001908152602001600020600201819055506005600360008460ff1660ff16815260200190815260200160002060000160116101000a81548160ff02191690836005811115611177577f4e487b7100000000000000000000000000000000000000000000000000000000600052602160045260246000fd5b02179055506003600460008460ff1660ff16815260200190815260200160002060000160016101000a81548160ff021916908360048111156111e2577f4e487b7100000000000000000000000000000000000000000000000000000000600052602160045260246000fd5b02179055507f000000000000000000000000000000000000000000000000000000000000000073ffffffffffffffffffffffffffffffffffffffff166108fc600360008560ff1660ff168152602001908152602001600020600101549081150290604051600060405180830381858888f19350505050158015611269573d6000803e3d6000fd5b505b50600160008190555050565b7fe27592a68a79c541972a95a186227e8435146610cb2d3eb8f8589c9a507d61b26112a181612115565b600260058111156112db577f4e487b7100000000000000000000000000000000000000000000000000000000600052602160045260246000fd5b600360008460ff1660ff16815260200190815260200160002060000160119054906101000a900460ff16600581111561133d577f4e487b7100000000000000000000000000000000000000000000000000000000600052602160045260246000fd5b1461137d576040517f08c379a0000000000000000000000000000000000000000000000000000000008152600401611374906130b5565b60405180910390fd5b4261a8c063ffffffff16600360008560ff1660ff16815260200190815260200160002060000160099054906101000a900467ffffffffffffffff166113c2919061337e565b67ffffffffffffffff16106113d657600080fd5b600360008360ff1660ff16815260200190815260200160002060010154600360008460ff1660ff1681526020019081526020016000206002018190555060038060008460ff1660ff16815260200190815260200160002060000160116101000a81548160ff02191690836005811115611478577f4e487b7100000000000000000000000000000000000000000000000000000000600052602160045260246000fd5b02179055507f000000000000000000000000000000000000000000000000000000000000000073ffffffffffffffffffffffffffffffffffffffff166108fc600360008560ff1660ff168152602001908152602001600020600101549081150290604051600060405180830381858888f193505050501580156114ff573d6000803e3d6000fd5b505050565b7feeccd0cdb44235955432f589255f62b95683f64165b40b022d338b8009cf79b681565b60006001600084815260200190815260200160002060000160008373ffffffffffffffffffffffffffffffffffffffff1673ffffffffffffffffffffffffffffffffffffffff16815260200190815260200160002060009054906101000a900460ff16905092915050565b6000801b81565b60036020528060005260406000206000915090508060000160009054906101000a900460ff16908060000160019054906101000a900467ffffffffffffffff16908060000160099054906101000a900467ffffffffffffffff16908060000160119054906101000a900460ff1690806001015490806002015490806003018054611623906135e0565b80601f016020809104026020016040519081016040528092919081815260200182805461164f906135e0565b801561169c5780601f106116715761010080835404028352916020019161169c565b820191906000526020600020905b81548152906001019060200180831161167f57829003601f168201915b5050505050908060040154908060050154908060060160009054906101000a900467ffffffffffffffff1690508a565b7fe27592a68a79c541972a95a186227e8435146610cb2d3eb8f8589c9a507d61b26116f681612115565b60006005811115611730577f4e487b7100000000000000000000000000000000000000000000000000000000600052602160045260246000fd5b600360008460ff1660ff16815260200190815260200160002060000160119054906101000a900460ff166005811115611792577f4e487b7100000000000000000000000000000000000000000000000000000000600052602160045260246000fd5b146117d2576040517f08c379a00000000000000000000000000000000000000000000000000000000081526004016117c990612fd5565b60405180910390fd5b600360008360ff1660ff16815260200190815260200160002060040154341015611831576040517f08c379a000000000000000000000000000000000000000000000000000000000815260040161182890613095565b60405180910390fd5b6001600360008460ff1660ff16815260200190815260200160002060000160116101000a81548160ff02191690836005811115611897577f4e487b7100000000000000000000000000000000000000000000000000000000600052602160045260246000fd5b02179055505050565b6118a9826105d3565b6118b281612115565b6118bc8383612211565b505050565b7fe27592a68a79c541972a95a186227e8435146610cb2d3eb8f8589c9a507d61b281565b6004600581111561191f577f4e487b7100000000000000000000000000000000000000000000000000000000600052602160045260246000fd5b600360008660ff1660ff16815260200190815260200160002060000160119054906101000a900460ff166005811115611981577f4e487b7100000000000000000000000000000000000000000000000000000000600052602160045260246000fd5b146119c1576040517f08c379a00000000000000000000000000000000000000000000000000000000081526004016119b8906130d5565b60405180910390fd5b6203f48063ffffffff16600460008660ff1660ff16815260200190815260200160002060000160029054906101000a900467ffffffffffffffff16611a06919061337e565b67ffffffffffffffff164210611a51576040517f08c379a0000000000000000000000000000000000000000000000000000000008152600401611a4890613035565b60405180910390fd5b60016004811115611a8b577f4e487b7100000000000000000000000000000000000000000000000000000000600052602160045260246000fd5b600460008660ff1660ff16815260200190815260200160002060000160019054906101000a900460ff166004811115611aed577f4e487b7100000000000000000000000000000000000000000000000000000000600052602160045260246000fd5b14611b2d576040517f08c379a0000000000000000000000000000000000000000000000000000000008152600401611b2490613055565b60405180910390fd5b600033604051602001611b409190612f08565b604051602081830303815290604052805190602001209050611bc0838380806020026020016040519081016040528093929190818152602001838360200280828437600081840152601f19601f82011690508083019250505050505050600360008860ff1660ff16815260200190815260200160002060050154836122f3565b611bff576040517f08c379a0000000000000000000000000000000000000000000000000000000008152600401611bf690612ff5565b60405180910390fd5b8315611c7157600460008660ff1660ff168152602001908152602001600020600301600081819054906101000a900467ffffffffffffffff1680929190611c459061368c565b91906101000a81548167ffffffffffffffff021916908367ffffffffffffffff16021790555050611cd9565b600460008660ff1660ff168152602001908152602001600020600301600881819054906101000a900467ffffffffffffffff1680929190611cb19061368c565b91906101000a81548167ffffffffffffffff021916908367ffffffffffffffff160217905550505b6000600360008760ff1660ff16815260200190815260200160002060060160009054906101000a900467ffffffffffffffff1667ffffffffffffffff16600360008860ff1660ff168152602001908152602001600020600401546002611d3f91906133ed565b611d4991906133bc565b90503373ffffffffffffffffffffffffffffffffffffffff166108fc829081150290604051600060405180830381858888f19350505050158015611d91573d6000803e3d6000fd5b50505050505050565b7fe27592a68a79c541972a95a186227e8435146610cb2d3eb8f8589c9a507d61b2611dc481612115565b81600460008560ff1660ff1681526020019081526020016000206001019080519060200190611df49291906127d9565b50505050565b61a8c081565b7feeccd0cdb44235955432f589255f62b95683f64165b40b022d338b8009cf79b6611e2a81612115565b60026005811115611e64577f4e487b7100000000000000000000000000000000000000000000000000000000600052602160045260246000fd5b600360008560ff1660ff16815260200190815260200160002060000160119054906101000a900460ff166005811115611ec6577f4e487b7100000000000000000000000000000000000000000000000000000000600052602160045260246000fd5b14611f06576040517f08c379a0000000000000000000000000000000000000000000000000000000008152600401611efd90613015565b60405180910390fd5b4261a8c063ffffffff16600360008660ff1660ff16815260200190815260200160002060000160099054906101000a900467ffffffffffffffff16611f4b919061337e565b67ffffffffffffffff1611611f5f57600080fd5b6000600460008560ff1660ff1681526020019081526020016000209050838160000160006101000a81548160ff021916908360ff16021790555060018160000160016101000a81548160ff02191690836004811115611fe7577f4e487b7100000000000000000000000000000000000000000000000000000000600052602160045260246000fd5b0217905550828160010190805190602001906120049291906127d9565b50428160000160026101000a81548167ffffffffffffffff021916908367ffffffffffffffff1602179055506001600481111561206a577f4e487b7100000000000000000000000000000000000000000000000000000000600052602160045260246000fd5b4267ffffffffffffffff168560ff167f532f4fa03ec351b572362ddb911818d5e4608ae2c0e0254af00a48c526eda21c60405160405180910390a450505050565b60007f01ffc9a7000000000000000000000000000000000000000000000000000000007bffffffffffffffffffffffffffffffffffffffffffffffffffffffff1916827bffffffffffffffffffffffffffffffffffffffffffffffffffffffff1916149050919050565b61212681612121612209565b61230a565b50565b6121338282611528565b61220557600180600084815260200190815260200160002060000160008373ffffffffffffffffffffffffffffffffffffffff1673ffffffffffffffffffffffffffffffffffffffff16815260200190815260200160002060006101000a81548160ff0219169083151502179055506121aa612209565b73ffffffffffffffffffffffffffffffffffffffff168173ffffffffffffffffffffffffffffffffffffffff16837f2f8788117e7eff1d82e926ec794901d17c78024a50270940304540a733656f0d60405160405180910390a45b5050565b600033905090565b61221b8282611528565b156122ef5760006001600084815260200190815260200160002060000160008373ffffffffffffffffffffffffffffffffffffffff1673ffffffffffffffffffffffffffffffffffffffff16815260200190815260200160002060006101000a81548160ff021916908315150217905550612294612209565b73ffffffffffffffffffffffffffffffffffffffff168173ffffffffffffffffffffffffffffffffffffffff16837ff6391f5c32d9c69d2a47ea670b442974b53935d1edc7fd64eb21e047a839171b60405160405180910390a45b5050565b60008261230085846123a7565b1490509392505050565b6123148282611528565b6123a3576123398173ffffffffffffffffffffffffffffffffffffffff166014612442565b6123478360001c6020612442565b604051602001612358929190612f23565b6040516020818303038152906040526040517f08c379a000000000000000000000000000000000000000000000000000000000815260040161239a9190612f93565b60405180910390fd5b5050565b60008082905060005b84518110156124375760008582815181106123f4577f4e487b7100000000000000000000000000000000000000000000000000000000600052603260045260246000fd5b602002602001015190508083116124165761240f838261273c565b9250612423565b612420818461273c565b92505b50808061242f90613643565b9150506123b0565b508091505092915050565b60606000600283600261245591906133ed565b61245f9190613328565b67ffffffffffffffff81111561249e577f4e487b7100000000000000000000000000000000000000000000000000000000600052604160045260246000fd5b6040519080825280601f01601f1916602001820160405280156124d05781602001600182028036833780820191505090505b5090507f30000000000000000000000000000000000000000000000000000000000000008160008151811061252e577f4e487b7100000000000000000000000000000000000000000000000000000000600052603260045260246000fd5b60200101907effffffffffffffffffffffffffffffffffffffffffffffffffffffffffffff1916908160001a9053507f7800000000000000000000000000000000000000000000000000000000000000816001815181106125b8577f4e487b7100000000000000000000000000000000000000000000000000000000600052603260045260246000fd5b60200101907effffffffffffffffffffffffffffffffffffffffffffffffffffffffffffff1916908160001a905350600060018460026125f891906133ed565b6126029190613328565b90505b60018111156126ee577f3031323334353637383961626364656600000000000000000000000000000000600f86166010811061266a577f4e487b7100000000000000000000000000000000000000000000000000000000600052603260045260246000fd5b1a60f81b8282815181106126a7577f4e487b7100000000000000000000000000000000000000000000000000000000600052603260045260246000fd5b60200101907effffffffffffffffffffffffffffffffffffffffffffffffffffffffffffff1916908160001a905350600485901c9450806126e7906135b6565b9050612605565b5060008414612732576040517f08c379a000000000000000000000000000000000000000000000000000000000815260040161272990612fb5565b60405180910390fd5b8091505092915050565b600082600052816020526040600020905092915050565b82805461275f906135e0565b90600052602060002090601f01602090048101928261278157600085556127c8565b82601f1061279a57803560ff19168380011785556127c8565b828001600101855582156127c8579182015b828111156127c75782358255916020019190600101906127ac565b5b5090506127d5919061285f565b5090565b8280546127e5906135e0565b90600052602060002090601f016020900481019282612807576000855561284e565b82601f1061282057805160ff191683800117855561284e565b8280016001018555821561284e579182015b8281111561284d578251825591602001919060010190612832565b5b50905061285b919061285f565b5090565b5b80821115612878576000816000905550600101612860565b5090565b600061288f61288a846132d0565b6132ab565b9050828152602081018484840111156128a757600080fd5b6128b2848285613574565b509392505050565b6000813590506128c981613b3b565b92915050565b60008083601f8401126128e157600080fd5b8235905067ffffffffffffffff8111156128fa57600080fd5b60208301915083602082028301111561291257600080fd5b9250929050565b60008135905061292881613b52565b92915050565b60008135905061293d81613b69565b92915050565b60008135905061295281613b80565b92915050565b60008083601f84011261296a57600080fd5b8235905067ffffffffffffffff81111561298357600080fd5b60208301915083600182028301111561299b57600080fd5b9250929050565b600082601f8301126129b357600080fd5b81356129c384826020860161287c565b91505092915050565b6000813590506129db81613b97565b92915050565b6000813590506129f081613bae565b92915050565b600081359050612a0581613bc5565b92915050565b600060208284031215612a1d57600080fd5b6000612a2b8482850161292e565b91505092915050565b60008060408385031215612a4757600080fd5b6000612a558582860161292e565b9250506020612a66858286016128ba565b9150509250929050565b600060208284031215612a8257600080fd5b6000612a9084828501612943565b91505092915050565b600080600080600060808688031215612ab157600080fd5b600086013567ffffffffffffffff811115612acb57600080fd5b612ad788828901612958565b95509550506020612aea888289016129cc565b9350506040612afb8882890161292e565b9250506060612b0c888289016129e1565b9150509295509295909350565b600060208284031215612b2b57600080fd5b6000612b39848285016129f6565b91505092915050565b60008060008060608587031215612b5857600080fd5b6000612b66878288016129f6565b9450506020612b7787828801612919565b935050604085013567ffffffffffffffff811115612b9457600080fd5b612ba0878288016128cf565b925092505092959194509250565b60008060408385031215612bc157600080fd5b6000612bcf858286016129f6565b925050602083013567ffffffffffffffff811115612bec57600080fd5b612bf8858286016129a2565b9150509250929050565b612c13612c0e8261347b565b6136e7565b82525050565b612c228161348d565b82525050565b612c3181613499565b82525050565b612c4081613550565b82525050565b612c4f81613562565b82525050565b6000612c6082613301565b612c6a818561330c565b9350612c7a818560208601613583565b612c83816137f6565b840191505092915050565b6000612c9982613301565b612ca3818561331d565b9350612cb3818560208601613583565b80840191505092915050565b6000612ccc60208361330c565b9150612cd782613814565b602082019050919050565b6000612cef601f8361330c565b9150612cfa8261383d565b602082019050919050565b6000612d1260148361330c565b9150612d1d82613866565b602082019050919050565b6000612d3560278361330c565b9150612d408261388f565b604082019050919050565b6000612d5860178361330c565b9150612d63826138de565b602082019050919050565b6000612d7b602e8361330c565b9150612d8682613907565b604082019050919050565b6000612d9e601f8361330c565b9150612da982613956565b602082019050919050565b6000612dc1601d8361330c565b9150612dcc8261397f565b602082019050919050565b6000612de460258361330c565b9150612def826139a8565b604082019050919050565b6000612e07601f8361330c565b9150612e12826139f7565b602082019050919050565b6000612e2a60178361331d565b9150612e3582613a20565b601782019050919050565b6000612e4d601d8361330c565b9150612e5882613a49565b602082019050919050565b6000612e70601f8361330c565b9150612e7b82613a72565b602082019050919050565b6000612e9360118361331d565b9150612e9e82613a9b565b601182019050919050565b6000612eb6602f8361330c565b9150612ec182613ac4565b604082019050919050565b612ed581613515565b82525050565b612ee48161351f565b82525050565b612ef38161352f565b82525050565b612f0281613543565b82525050565b6000612f148284612c02565b60148201915081905092915050565b6000612f2e82612e1d565b9150612f3a8285612c8e565b9150612f4582612e86565b9150612f518284612c8e565b91508190509392505050565b6000602082019050612f726000830184612c19565b92915050565b6000602082019050612f8d6000830184612c28565b92915050565b60006020820190508181036000830152612fad8184612c55565b905092915050565b60006020820190508181036000830152612fce81612cbf565b9050919050565b60006020820190508181036000830152612fee81612ce2565b9050919050565b6000602082019050818103600083015261300e81612d05565b9050919050565b6000602082019050818103600083015261302e81612d28565b9050919050565b6000602082019050818103600083015261304e81612d4b565b9050919050565b6000602082019050818103600083015261306e81612d6e565b9050919050565b6000602082019050818103600083015261308e81612d91565b9050919050565b600060208201905081810360008301526130ae81612db4565b9050919050565b600060208201905081810360008301526130ce81612dd7565b9050919050565b600060208201905081810360008301526130ee81612dfa565b9050919050565b6000602082019050818103600083015261310e81612e40565b9050919050565b6000602082019050818103600083015261312e81612e63565b9050919050565b6000602082019050818103600083015261314e81612ea9565b9050919050565b600060208201905061316a6000830184612edb565b92915050565b60006020820190506131856000830184612ef9565b92915050565b600060e0820190506131a0600083018a612ef9565b6131ad6020830189612c37565b6131ba6040830188612eea565b81810360608301526131cc8187612c55565b905081810360808301526131e08186612c55565b90506131ef60a0830185612eea565b6131fc60c0830184612eea565b98975050505050505050565b60006101408201905061321e600083018d612ef9565b61322b602083018c612eea565b613238604083018b612eea565b613245606083018a612c46565b6132526080830189612ecc565b61325f60a0830188612ecc565b81810360c08301526132718187612c55565b905061328060e0830186612ecc565b61328e610100830185612c28565b61329c610120830184612eea565b9b9a5050505050505050505050565b60006132b56132c6565b90506132c18282613612565b919050565b6000604051905090565b600067ffffffffffffffff8211156132eb576132ea6137c7565b5b6132f4826137f6565b9050602081019050919050565b600081519050919050565b600082825260208201905092915050565b600081905092915050565b600061333382613515565b915061333e83613515565b9250827fffffffffffffffffffffffffffffffffffffffffffffffffffffffffffffffff038211156133735761337261370b565b5b828201905092915050565b60006133898261352f565b91506133948361352f565b92508267ffffffffffffffff038211156133b1576133b061370b565b5b828201905092915050565b60006133c782613515565b91506133d283613515565b9250826133e2576133e161373a565b5b828204905092915050565b60006133f882613515565b915061340383613515565b9250817fffffffffffffffffffffffffffffffffffffffffffffffffffffffffffffffff048311821515161561343c5761343b61370b565b5b828202905092915050565b600061345282613515565b915061345d83613515565b9250828210156134705761346f61370b565b5b828203905092915050565b6000613486826134f5565b9050919050565b60008115159050919050565b6000819050919050565b60007fffffffff0000000000000000000000000000000000000000000000000000000082169050919050565b60008190506134dd82613b13565b919050565b60008190506134f082613b27565b919050565b600073ffffffffffffffffffffffffffffffffffffffff82169050919050565b6000819050919050565b600063ffffffff82169050919050565b600067ffffffffffffffff82169050919050565b600060ff82169050919050565b600061355b826134cf565b9050919050565b600061356d826134e2565b9050919050565b82818337600083830152505050565b60005b838110156135a1578082015181840152602081019050613586565b838111156135b0576000848401525b50505050565b60006135c182613515565b915060008214156135d5576135d461370b565b5b600182039050919050565b600060028204905060018216806135f857607f821691505b6020821081141561360c5761360b613798565b5b50919050565b61361b826137f6565b810181811067ffffffffffffffff8211171561363a576136396137c7565b5b80604052505050565b600061364e82613515565b91507fffffffffffffffffffffffffffffffffffffffffffffffffffffffffffffffff8214156136815761368061370b565b5b600182019050919050565b60006136978261352f565b915067ffffffffffffffff8214156136b2576136b161370b565b5b600182019050919050565b60006136c882613543565b915060ff8214156136dc576136db61370b565b5b600182019050919050565b60006136f2826136f9565b9050919050565b600061370482613807565b9050919050565b7f4e487b7100000000000000000000000000000000000000000000000000000000600052601160045260246000fd5b7f4e487b7100000000000000000000000000000000000000000000000000000000600052601260045260246000fd5b7f4e487b7100000000000000000000000000000000000000000000000000000000600052602160045260246000fd5b7f4e487b7100000000000000000000000000000000000000000000000000000000600052602260045260246000fd5b7f4e487b7100000000000000000000000000000000000000000000000000000000600052604160045260246000fd5b6000601f19601f8301169050919050565b60008160601b9050919050565b7f537472696e67733a20686578206c656e67746820696e73756666696369656e74600082015250565b7f4f72646572206d75737420626520696e2050524f504f53454420737461746500600082015250565b7f41646472657373206973206e6f742076616c6964000000000000000000000000600082015250565b7f4f72646572206d7573742062652064656c697665726564206265666f7265206360008201527f6f6e666c69637400000000000000000000000000000000000000000000000000602082015250565b7f5265736f6c7574696f6e2054696d65204973204f766572000000000000000000600082015250565b7f436f6e666c696374206d75737420626520696e20434f4e464c4943545f494e5f60008201527f50524f4752455353207374617465000000000000000000000000000000000000602082015250565b7f5265736f6c7574696f6e2054696d65204973204e6f74204f7665722059657400600082015250565b7f436f6e666c696374205072656d69756d20496e73756666696369656e74000000600082015250565b7f4f72646572206d7573742062652064656c697665726564206265666f7265207060008201527f61796f7574000000000000000000000000000000000000000000000000000000602082015250565b7f4f72646572206d75737420626520696e20434f4e464c49435420737461746500600082015250565b7f416363657373436f6e74726f6c3a206163636f756e7420000000000000000000600082015250565b7f4f72646572206d75737420626520696e20414354495645207374617465000000600082015250565b7f5265656e7472616e637947756172643a207265656e7472616e742063616c6c00600082015250565b7f206973206d697373696e6720726f6c6520000000000000000000000000000000600082015250565b7f416363657373436f6e74726f6c3a2063616e206f6e6c792072656e6f756e636560008201527f20726f6c657320666f722073656c660000000000000000000000000000000000602082015250565b60058110613b2457613b23613769565b5b50565b60068110613b3857613b37613769565b5b50565b613b448161347b565b8114613b4f57600080fd5b50565b613b5b8161348d565b8114613b6657600080fd5b50565b613b7281613499565b8114613b7d57600080fd5b50565b613b89816134a3565b8114613b9457600080fd5b50565b613ba081613515565b8114613bab57600080fd5b50565b613bb78161352f565b8114613bc257600080fd5b50565b613bce81613543565b8114613bd957600080fd5b5056fea26469706673582212208c166144766db10523f31565f54e6c302de2610dd05132cae5a0a110f6a5886564736f6c63430008040033",
  "linkReferences": {},
  "deployedLinkReferences": {}
}